{"abi":[{"type":"constructor","inputs":[{"name":"admin","type":"address","internalType":"address"}],"stateMutability":"nonpayable"},{"type":"function","name":"DEFAULT_ADMIN_ROLE","inputs":[],"outputs":[{"name":"","type":"bytes32","internalType":"bytes32"}],"stateMutability":"view"},{"type":"function","name":"MINTER_ROLE","inputs":[],"outputs":[{"name":"","type":"bytes32","internalType":"bytes32"}],"stateMutability":"view"},{"type":"function","name":"approve","inputs":[{"name":"to","type":"address","internalType":"address"},{"name":"tokenId","type":"uint256","internalType":"uint256"}],"outputs":[],"stateMutability":"nonpayable"},{"type":"function","name":"balanceOf","inputs":[{"name":"owner","type":"address","internalType":"address"}],"outputs":[{"name":"","type":"uint256","internalType":"uint256"}],"stateMutability":"view"},{"type":"function","name":"getApproved","inputs":[{"name":"tokenId","type":"uint256","internalType":"uint256"}],"outputs":[{"name":"","type":"address","internalType":"address"}],"stateMutability":"view"},{"type":"function","name":"getRoleAdmin","inputs":[{"name":"role","type":"bytes32","internalType":"bytes32"}],"outputs":[{"name":"","type":"bytes32","internalType":"bytes32"}],"stateMutability":"view"},{"type":"function","name":"grantRole","inputs":[{"name":"role","type":"bytes32","internalType":"bytes32"},{"name":"account","type":"address","internalType":"address"}],"outputs":[],"stateMutability":"nonpayable"},{"type":"function","name":"hasRole","inputs":[{"name":"role","type":"bytes32","internalType":"bytes32"},{"name":"account","type":"address","internalType":"address"}],"outputs":[{"name":"","type":"bool","internalType":"bool"}],"stateMutability":"view"},{"type":"function","name":"isApprovedForAll","inputs":[{"name":"owner","type":"address","internalType":"address"},{"name":"operator","type":"address","internalType":"address"}],"outputs":[{"name":"","type":"bool","internalType":"bool"}],"stateMutability":"view"},{"type":"function","name":"locked","inputs":[{"name":"tokenId","type":"uint256","internalType":"uint256"}],"outputs":[{"name":"","type":"bool","internalType":"bool"}],"stateMutability":"view"},{"type":"function","name":"mintReceipt","inputs":[{"name":"to","type":"address","internalType":"address"},{"name":"batchTokenId","type":"uint256","internalType":"uint256"},{"name":"amountUnits","type":"uint256","internalType":"uint256"},{"name":"retirementReference","type":"string","internalType":"string"},{"name":"beneficiaryRefHash","type":"string","internalType":"string"},{"name":"purpose","type":"string","internalType":"string"}],"outputs":[{"name":"receiptId","type":"uint256","internalType":"uint256"}],"stateMutability":"nonpayable"},{"type":"function","name":"name","inputs":[],"outputs":[{"name":"","type":"string","internalType":"string"}],"stateMutability":"view"},{"type":"function","name":"ownerOf","inputs":[{"name":"tokenId","type":"uint256","internalType":"uint256"}],"outputs":[{"name":"","type":"address","internalType":"address"}],"stateMutability":"view"},{"type":"function","name":"receipts","inputs":[{"name":"","type":"uint256","internalType":"uint256"}],"outputs":[{"name":"receiptId","type":"uint256","internalType":"uint256"},{"name":"batchTokenId","type":"uint256","internalType":"uint256"},{"name":"amountUnits","type":"uint256","internalType":"uint256"},{"name":"retiredAt","type":"uint64","internalType":"uint64"},{"name":"retirementReference","type":"string","internalType":"string"},{"name":"beneficiaryRefHash","type":"string","internalType":"string"},{"name":"purpose","type":"string","internalType":"string"}],"stateMutability":"view"},{"type":"function","name":"renounceRole","inputs":[{"name":"role","type":"bytes32","internalType":"bytes32"},{"name":"callerConfirmation","type":"address","internalType":"address"}],"outputs":[],"stateMutability":"nonpayable"},{"type":"function","name":"revokeRole","inputs":[{"name":"role","type":"bytes32","internalType":"bytes32"},{"name":"account","type":"address","internalType":"address"}],"outputs":[],"stateMutability":"nonpayable"},{"type":"function","name":"safeTransferFrom","inputs":[{"name":"from","type":"address","internalType":"address"},{"name":"to","type":"address","internalType":"address"},{"name":"tokenId","type":"uint256","internalType":"uint256"}],"outputs":[],"stateMutability":"nonpayable"},{"type":"function","name":"safeTransferFrom","inputs":[{"name":"from","type":"address","internalType":"address"},{"name":"to","type":"address","internalType":"address"},{"name":"tokenId","type":"uint256","internalType":"uint256"},{"name":"data","type":"bytes","internalType":"bytes"}],"outputs":[],"stateMutability":"nonpayable"},{"type":"function","name":"setApprovalForAll","inputs":[{"name":"operator","type":"address","internalType":"address"},{"name":"approved","type":"bool","internalType":"bool"}],"outputs":[],"stateMutability":"nonpayable"},{"type":"function","name":"supportsInterface","inputs":[{"name":"interfaceId","type":"bytes4","internalType":"bytes4"}],"outputs":[{"name":"","type":"bool","internalType":"bool"}],"stateMutability":"view"},{"type":"function","name":"symbol","inputs":[],"outputs":[{"name":"","type":"string","internalType":"string"}],"stateMutability":"view"},{"type":"function","name":"tokenURI","inputs":[{"name":"tokenId","type":"uint256","internalType":"uint256"}],"outputs":[{"name":"","type":"string","internalType":"string"}],"stateMutability":"view"},{"type":"function","name":"transferFrom","inputs":[{"name":"from","type":"address","internalType":"address"},{"name":"to","type":"address","internalType":"address"},{"name":"tokenId","type":"uint256","internalType":"uint256"}],"outputs":[],"stateMutability":"nonpayable"},{"type":"event","name":"Approval","inputs":[{"name":"owner","type":"address","indexed":true,"internalType":"address"},{"name":"approved","type":"address","indexed":true,"internalType":"address"},{"name":"tokenId","type":"uint256","indexed":true,"internalType":"uint256"}],"anonymous":false},{"type":"event","name":"ApprovalForAll","inputs":[{"name":"owner","type":"address","indexed":true,"internalType":"address"},{"name":"operator","type":"address","indexed":true,"internalType":"address"},{"name":"approved","type":"bool","indexed":false,"internalType":"bool"}],"anonymous":false},{"type":"event","name":"BatchMetadataUpdate","inputs":[{"name":"_fromTokenId","type":"uint256","indexed":false,"internalType":"uint256"},{"name":"_toTokenId","type":"uint256","indexed":false,"internalType":"uint256"}],"anonymous":false},{"type":"event","name":"Locked","inputs":[{"name":"tokenId","type":"uint256","indexed":false,"internalType":"uint256"}],"anonymous":false},{"type":"event","name":"MetadataUpdate","inputs":[{"name":"_tokenId","type":"uint256","indexed":false,"internalType":"uint256"}],"anonymous":false},{"type":"event","name":"RoleAdminChanged","inputs":[{"name":"role","type":"bytes32","indexed":true,"internalType":"bytes32"},{"name":"previousAdminRole","type":"bytes32","indexed":true,"internalType":"bytes32"},{"name":"newAdminRole","type":"bytes32","indexed":true,"internalType":"bytes32"}],"anonymous":false},{"type":"event","name":"RoleGranted","inputs":[{"name":"role","type":"bytes32","indexed":true,"internalType":"bytes32"},{"name":"account","type":"address","indexed":true,"internalType":"address"},{"name":"sender","type":"address","indexed":true,"internalType":"address"}],"anonymous":false},{"type":"event","name":"RoleRevoked","inputs":[{"name":"role","type":"bytes32","indexed":true,"internalType":"bytes32"},{"name":"account","type":"address","indexed":true,"internalType":"address"},{"name":"sender","type":"address","indexed":true,"internalType":"address"}],"anonymous":false},{"type":"event","name":"Transfer","inputs":[{"name":"from","type":"address","indexed":true,"internalType":"address"},{"name":"to","type":"address","indexed":true,"internalType":"address"},{"name":"tokenId","type":"uint256","indexed":true,"internalType":"uint256"}],"anonymous":false},{"type":"error","name":"AccessControlBadConfirmation","inputs":[]},{"type":"error","name":"AccessControlUnauthorizedAccount","inputs":[{"name":"account","type":"address","internalType":"address"},{"name":"neededRole","type":"bytes32","internalType":"bytes32"}]},{"type":"error","name":"ERC721IncorrectOwner","inputs":[{"name":"sender","type":"address","internalType":"address"},{"name":"tokenId","type":"uint256","internalType":"uint256"},{"name":"owner","type":"address","internalType":"address"}]},{"type":"error","name":"ERC721InsufficientApproval","inputs":[{"name":"operator","type":"address","internalType":"address"},{"name":"tokenId","type":"uint256","internalType":"uint256"}]},{"type":"error","name":"ERC721InvalidApprover","inputs":[{"name":"approver","type":"address","internalType":"address"}]},{"type":"error","name":"ERC721InvalidOperator","inputs":[{"name":"operator","type":"address","internalType":"address"}]},{"type":"error","name":"ERC721InvalidOwner","inputs":[{"name":"owner","type":"address","internalType":"address"}]},{"type":"error","name":"ERC721InvalidReceiver","inputs":[{"name":"receiver","type":"address","internalType":"address"}]},{"type":"error","name":"ERC721InvalidSender","inputs":[{"name":"sender","type":"address","internalType":"address"}]},{"type":"error","name":"ERC721NonexistentToken","inputs":[{"name":"tokenId","type":"uint256","internalType":"uint256"}]},{"type":"error","name":"NonTransferable","inputs":[]}],"bytecode":{"object":"0x6080346200037557601f1990601f906001600160401b0362001d563881900384810186168401838111858210176200035f57849282916040528339602093849181010312620003755751926001600160a01b03841684036200037557620000656200037a565b92601684527f484543205265746972656d656e7420526563656970740000000000000000000081850152620000996200037a565b9060058252642422a196a960d91b818301528451968488116200035f576000978854966001978881811c9116801562000354575b858210146200034057908187849311620002ed575b5084908783116001146200028c578b9262000280575b5050600019600383901b1c191690871b1788555b82519485116200026c5785548681811c9116801562000261575b838210146200024d5784811162000205575b50819385116001146200019c5750509082916200017f969262000190575b5050600019600383901b1c191690821b1781555b60085562000178816200039a565b506200041b565b506040516118779081620004bf8239f35b01519050388062000156565b8588528188209497908816915b828210620001ed57505091849391876200017f989410620001d3575b505050811b0181556200016a565b015160001960f88460031b161c19169055388080620001c5565b808786978294978701518155019601940190620001a9565b8689528289208580880160051c82019285891062000243575b0160051c019087905b8281106200023757505062000138565b8a815501879062000227565b925081926200021e565b634e487b7160e01b89526022600452602489fd5b90607f169062000126565b634e487b7160e01b88526041600452602488fd5b015190503880620000f8565b90848a9416918c8052868d20928d5b88828210620002d65750508411620002bc575b505050811b0188556200010c565b015160001960f88460031b161c19169055388080620002ae565b8385015186558d979095019493840193016200029b565b9091508a8052848b208780850160051c82019287861062000336575b918b91869594930160051c01915b82811062000327575050620000e2565b8d81558594508b910162000317565b9250819262000309565b634e487b7160e01b8b52602260045260248bfd5b90607f1690620000cd565b634e487b7160e01b600052604160045260246000fd5b600080fd5b60408051919082016001600160401b038111838210176200035f57604052565b6001600160a01b031660008181527f6d5257204ebe7d88fd91ae87941cb2dd9d8062b64ae5a2bd2d28ec40b9fbf6df602052604081205490919060ff16620004175781805260076020526040822081835260205260408220600160ff19825416179055339160008051602062001d368339815191528180a4600190565b5090565b6001600160a01b031660008181527fa4bfd7afe708e2e87e7f0e2ad9b4d545417e0f795f57b5c5ab5d799c565a04f460205260408120549091907f9f2df0fed2c77648de5860a4cc508cd0818c85b8b8a1ab4ceeef8d981c8956a69060ff16620004b95780835260076020526040832082845260205260408320600160ff1982541617905560008051602062001d36833981519152339380a4600190565b50509056fe608080604052600436101561001357600080fd5b60003560e01c90816301ffc9a7146110ec5750806306fdde0314611049578063081812fc1461100b578063095ea7b314610f245780630f7ee1ec14610e7457806323b872dd14610e5d578063248a9ca314610e2e57806327893b761461060d5780632f2ff15d146105ce57806336568abe1461058757806342842e0e146105595780636352211e1461052957806370a08231146104d057806391d148541461048357806395d89b41146103a4578063a217fddf14610388578063a22cb465146102e3578063b45a3c0e146102bb578063b88d4fde14610250578063c87b56dd146101f3578063d5391393146101b8578063d547741f146101775763e985e9c51461011c57600080fd5b34610172576040366003190112610172576101356111e5565b61013d6111fb565b9060018060a01b03809116600052600560205260406000209116600052602052602060ff604060002054166040519015158152f35b600080fd5b34610172576040366003190112610172576101b66004356101966111fb565b908060005260076020526101b16001604060002001546113e1565b611487565b005b346101725760003660031901126101725760206040517f9f2df0fed2c77648de5860a4cc508cd0818c85b8b8a1ab4ceeef8d981c8956a68152f35b3461017257602036600319011261017257600435610210816116b8565b50600052600660205261024c6102296040600020611287565b60006040516102378161124b565b526040519182916020835260208301906111a5565b0390f35b34610172576080366003190112610172576102696111e5565b6102716111fb565b90604435606435926001600160401b0384116101725736602385011215610172576102a96101b69436906024816004013591016113aa565b926102b58383836114fe565b336116f3565b34610172576020366003190112610172576102d76004356116b8565b50602060405160018152f35b34610172576040366003190112610172576102fc6111e5565b60243590811515809203610172576001600160a01b031690811561036f57336000526005602052604060002082600052602052604060002060ff1981541660ff83161790556040519081527f17307eab39ab6107e8899845ad3d59bd9653f200f220920489ca2b5937696c3160203392a3005b604051630b61174360e31b815260048101839052602490fd5b3461017257600036600319011261017257602060405160008152f35b3461017257600036600319011261017257604051600060018054906103c882611211565b8085529181811690811561045c5750600114610403575b61024c846103ef81860382611266565b6040519182916020835260208301906111a5565b600081815292507fb10e2d527612073b26eecdfd717e6a320cf44b4afac2b0732d9fcbe2b7fa0cf65b8284106104445750505081016020016103ef826103df565b8054602085870181019190915290930192810161042c565b60ff191660208087019190915292151560051b850190920192506103ef91508390506103df565b346101725760403660031901126101725761049c6111fb565b600435600052600760205260406000209060018060a01b0316600052602052602060ff604060002054166040519015158152f35b34610172576020366003190112610172576001600160a01b036104f16111e5565b1680156105105760005260036020526020604060002054604051908152f35b6040516322718ad960e21b815260006004820152602490fd5b346101725760203660031901126101725760206105476004356116b8565b6040516001600160a01b039091168152f35b34610172576101b661056a3661132d565b90604051926105788461124b565b600084526102b58383836114fe565b34610172576040366003190112610172576105a06111fb565b336001600160a01b038216036105bc576101b690600435611487565b60405163334bd91960e11b8152600490fd5b34610172576040366003190112610172576101b66004356105ed6111fb565b908060005260076020526106086001604060002001546113e1565b611407565b346101725760c0366003190112610172576106266111e5565b6064356001600160401b03811161017257610645903690600401611362565b906084356001600160401b03811161017257610665903690600401611362565b60a4939193356001600160401b03811161017257610687903690600401611362565b3360009081527fa4bfd7afe708e2e87e7f0e2ad9b4d545417e0f795f57b5c5ab5d799c565a04f4602052604090205491949093917f9f2df0fed2c77648de5860a4cc508cd0818c85b8b8a1ab4ceeef8d981c8956a69060ff1615610e105750600854936000198514610dfa57600185016008556040516107068161124b565b600081526001600160a01b03891615610de1576000868152600260205260409020546001600160a01b0316151580610dd9575b610dc7576000868152600260205260409020546001600160a01b031680610d90575b6001600160a01b038a166000818152600360209081526040808320805460010190558a83526002909152812080546001600160a01b0319168317905588919083907fddf252ad1be2c89b69c2b068fc378daa952ba7f163c4a11628f55a4df523b3ef9080a4610d7757883b610c2c575b509091929394959650604051958660e08101106001600160401b0360e089011117610a905761084b9160e0880160405286885261083f60208901996024358b5261083060408b0196604435885260608c01986001600160401b0342168a5236916113aa565b9760808b0198895236916113aa565b60a089015236916113aa565b60c0860152836000526009602052604060002095855187555160018701555160028601556001600160401b03600386019151166001600160401b0319825416179055519283516001600160401b038111610a90576108ac6004830154611211565b601f8111610be5575b506020601f8211600114610b76578192939495600092610b6b575b50508160011b916000199060031b1c19161760048201555b60a08301518051906001600160401b038211610a905761090b6005840154611211565b601f8111610b24575b50602090601f8311600114610ab157918060c09492600694600092610aa6575b50508160011b916000199060031b1c19161760058201555b01920151908151926001600160401b038411610a905761096c8154611211565b93601f8511610a48575b602094508493601f82116001146109e55793819293946000926109da575b50508160011b916000199060031b1c19161790555b7f032bc66be43dbccb7487781d168eb7bda224628a3b2c3388bdf69b532a3a161182604051838152a1604051908152f35b015190508580610994565b601f1982169483600052866000209160005b878110610a31575083600195969710610a18575b505050811b0190556109a9565b015160001960f88460031b161c19169055858080610a0b565b9192886001819286850151815501940192016109f7565b816000526020600020601f820160051c81019560208310610a86575b601f0160051c01945b858110610a7a5750610976565b60008155600101610a6d565b9095508590610a64565b634e487b7160e01b600052604160045260246000fd5b015190508780610934565b90600584016000526020600020916000601f198516905b818110610b0c575092600192859260069660c0989610610af3575b505050811b01600582015561094c565b015160001960f88460031b161c19169055878080610ae3565b92936020600181928786015181550195019301610ac8565b600584016000526020600020601f840160051c810160208510610b64575b601f830160051c82018110610b58575050610914565b60008155600101610b42565b5080610b42565b0151905085806108d0565b6004830160005260206000209060005b601f1984168110610bcd575060019394959683601f19811610610bb4575b505050811b0160048201556108e8565b015160001960f88460031b161c19169055858080610ba4565b9091602060018192858b015181550193019101610b86565b600483016000526020600020601f830160051c810160208410610c25575b601f830160051c82018110610c195750506108b5565b60008155600101610c03565b5080610c03565b60006020610c6d8b8994604051948580948193630a85bd0160e11b998a845233600485015284602485015260448401526080606484015260848301906111a5565b03926001600160a01b03165af160009181610d32575b50610ceb57893d15610ce3573d90610c9a8261138f565b91610ca86040519384611266565b82523d6000602084013e5b81519182610cdc57604051633250574960e11b81526001600160a01b0383166004820152602490fd5b6020915001fd5b606090610cb3565b63ffffffff60e09a939495969798999a1b1603610d10575090869594939291886107cb565b604051633250574960e11b81526001600160a01b039091166004820152602490fd5b9091506020813d602011610d6f575b81610d4e60209383611266565b8101031261017257516001600160e01b03198116810361017257908b610c83565b3d9150610d41565b6040516339e3563760e11b815260006004820152602490fd5b600087815260046020526040902080546001600160a01b03191690558060005260036020526040600020600019815401905561075b565b604051639cbe235760e01b8152600490fd5b506001610739565b604051633250574960e11b815260006004820152602490fd5b634e487b7160e01b600052601160045260246000fd5b6044906040519063e2517d3f60e01b82523360048301526024820152fd5b346101725760203660031901126101725760043560005260076020526020600160406000200154604051908152f35b34610172576101b6610e6e3661132d565b916114fe565b346101725760203660031901126101725760043560005260096020526040600020805461024c600183015492610f16600282015491610f086001600160401b03600383015416610ec660048401611287565b90610edf6006610ed860058701611287565b9501611287565b95604051998a998a5260208a01526040890152606088015260e0608088015260e08701906111a5565b9085820360a08701526111a5565b9083820360c08501526111a5565b3461017257604036600319011261017257610f3d6111e5565b602435610f49816116b8565b33151580610ff8575b80610fcb575b610fb3576001600160a01b039283169282918491167f8c5be1e5ebec7d5bd14f71427d1e84f3dd0314c0f7b2291e5b200ac8c7c3b925600080a4600090815260046020526040902080546001600160a01b0319169091179055005b60405163a9fbf51f60e01b8152336004820152602490fd5b5060018060a01b038116600052600560205260406000203360005260205260ff6040600020541615610f58565b506001600160a01b038116331415610f52565b3461017257602036600319011261017257600435611028816116b8565b506000526004602052602060018060a01b0360406000205416604051908152f35b34610172576000366003190112610172576040516000805461106a81611211565b8084529060019081811690811561045c57506001146110935761024c846103ef81860382611266565b600080805292507f290decd9548b62a8d60345a988386fc84ba6bc95484008f6362f93160ef3e5635b8284106110d45750505081016020016103ef826103df565b805460208587018101919091529093019281016110bc565b34610172576020366003190112610172576004359063ffffffff60e01b821680920361017257602091635a2d1e0760e11b811490811561112e575b5015158152f35b637965db0b60e01b811491508115611148575b5083611127565b632483248360e11b811491508115611162575b5083611141565b6380ac58cd60e01b811491508115611194575b8115611183575b508361115b565b6301ffc9a760e01b1490508361117c565b635b5e139f60e01b81149150611175565b919082519283825260005b8481106111d1575050826000602080949584010152601f8019910116010190565b6020818301810151848301820152016111b0565b600435906001600160a01b038216820361017257565b602435906001600160a01b038216820361017257565b90600182811c92168015611241575b602083101461122b57565b634e487b7160e01b600052602260045260246000fd5b91607f1691611220565b602081019081106001600160401b03821117610a9057604052565b90601f801991011681019081106001600160401b03821117610a9057604052565b906040519182600082549261129b84611211565b90818452600194858116908160001461130a57506001146112c7575b50506112c592500383611266565b565b9093915060005260209081600020936000915b8183106112f25750506112c5935082010138806112b7565b855488840185015294850194879450918301916112da565b9150506112c594506020925060ff191682840152151560051b82010138806112b7565b6060906003190112610172576001600160a01b0390600435828116810361017257916024359081168103610172579060443590565b9181601f84011215610172578235916001600160401b038311610172576020838186019501011161017257565b6001600160401b038111610a9057601f01601f191660200190565b9291926113b68261138f565b916113c46040519384611266565b829481845281830111610172578281602093846000960137010152565b80600052600760205260406000203360005260205260ff6040600020541615610e105750565b906000918083526007602052604083209160018060a01b03169182845260205260ff604084205416156000146114825780835260076020526040832082845260205260408320600160ff198254161790557f2f8788117e7eff1d82e926ec794901d17c78024a50270940304540a733656f0d339380a4600190565b505090565b906000918083526007602052604083209160018060a01b03169182845260205260ff604084205416600014611482578083526007602052604083208284526020526040832060ff1981541690557ff6391f5c32d9c69d2a47ea670b442974b53935d1edc7fd64eb21e047a839171b339380a4600190565b6001600160a01b039182169290918315610de157600092828452602094600286526040958387872054161515806116b0575b61169f579084918287526002815284888820541696879133151580611609575b509060027fddf252ad1be2c89b69c2b068fc378daa952ba7f163c4a11628f55a4df523b3ef92846115d6575b858352600381528b8320805460010190558683525289812080546001600160a01b0319168517905580a416928383036115b55750505050565b6064945051926364283d7b60e01b8452600484015260248301526044820152fd5b600087815260046020526040902080546001600160a01b0319169055848352600381528b8320805460001901905561157c565b9193945091508061165e575b1561162557859291879138611550565b878688611642576024915190637e27328960e01b82526004820152fd5b604491519063177e802f60e01b82523360048301526024820152fd5b503387148015611683575b806116155750858252600481523385898420541614611615565b5086825260058152878220338352815260ff8883205416611669565b8651639cbe235760e01b8152600490fd5b506001611530565b6000818152600260205260409020546001600160a01b03169081156116db575090565b60249060405190637e27328960e01b82526004820152fd5b90939192833b611705575b5050505050565b604051630a85bd0160e11b8082526001600160a01b0393841660048301529583166024820152604481019190915260806064820152949216926020929185906117529060848301906111a5565b039483816000978189895af18691816117fd575b506117c7575050503d6000146117be573d6117808161138f565b9061178e6040519283611266565b81528093823d92013e5b825192836117b957604051633250574960e11b815260048101849052602490fd5b019050fd5b60609250611798565b919450915063ffffffff60e01b16036117e5575038808080806116fe565b60249060405190633250574960e11b82526004820152fd5b9091508481813d831161183a575b6118158183611266565b8101031261183657516001600160e01b031981168103611836579038611766565b8680fd5b503d61180b56fea26469706673582212206c255a82b3e16d42ebd259be4af1fff5e184c31acb3bbe9fb9bb9ac3575a775364736f6c634300081400332f8788117e7eff1d82e926ec794901d17c78024a50270940304540a733656f0d","linkReferences":{}},"methodIdentifiers":{"DEFAULT_ADMIN_ROLE()":"a217fddf","MINTER_ROLE()":"d5391393","approve(address,uint256)":"095ea7b3","balanceOf(address)":"70a08231","getApproved(uint256)":"081812fc","getRoleAdmin(bytes32)":"248a9ca3","grantRole(bytes32,address)":"2f2ff15d","hasRole(bytes32,address)":"91d14854","isApprovedForAll(address,address)":"e985e9c5","locked(uint256)":"b45a3c0e","mintReceipt(address,uint256,uint256,string,string,string)":"27893b76","name()":"06fdde03","ownerOf(uint256)":"6352211e","receipts(uint256)":"0f7ee1ec","renounceRole(bytes32,address)":"36568abe","revokeRole(bytes32,address)":"d547741f","safeTransferFrom(address,address,uint256)":"42842e0e","safeTransferFrom(address,address,uint256,bytes)":"b88d4fde","setApprovalForAll(address,bool)":"a22cb465","supportsInterface(bytes4)":"01ffc9a7","symbol()":"95d89b41","tokenURI(uint256)":"c87b56dd","transferFrom(address,address,uint256)":"23b872dd"},"id":49}