{"abi":[{"type":"constructor","inputs":[{"name":"admin","type":"address","internalType":"address"},{"name":"treasury","type":"address","internalType":"address"},{"name":"baseURI","type":"string","internalType":"string"}],"stateMutability":"nonpayable"},{"type":"function","name":"DEFAULT_ADMIN_ROLE","inputs":[],"outputs":[{"name":"","type":"bytes32","internalType":"bytes32"}],"stateMutability":"view"},{"type":"function","name":"PAUSER_ROLE","inputs":[],"outputs":[{"name":"","type":"bytes32","internalType":"bytes32"}],"stateMutability":"view"},{"type":"function","name":"REGISTRAR_ROLE","inputs":[],"outputs":[{"name":"","type":"bytes32","internalType":"bytes32"}],"stateMutability":"view"},{"type":"function","name":"RETIREMENT_ROLE","inputs":[],"outputs":[{"name":"","type":"bytes32","internalType":"bytes32"}],"stateMutability":"view"},{"type":"function","name":"STATUS_MANAGER_ROLE","inputs":[],"outputs":[{"name":"","type":"bytes32","internalType":"bytes32"}],"stateMutability":"view"},{"type":"function","name":"UNIT_SCALE","inputs":[],"outputs":[{"name":"","type":"uint256","internalType":"uint256"}],"stateMutability":"view"},{"type":"function","name":"balanceOf","inputs":[{"name":"account","type":"address","internalType":"address"},{"name":"id","type":"uint256","internalType":"uint256"}],"outputs":[{"name":"","type":"uint256","internalType":"uint256"}],"stateMutability":"view"},{"type":"function","name":"balanceOfBatch","inputs":[{"name":"accounts","type":"address[]","internalType":"address[]"},{"name":"ids","type":"uint256[]","internalType":"uint256[]"}],"outputs":[{"name":"","type":"uint256[]","internalType":"uint256[]"}],"stateMutability":"view"},{"type":"function","name":"batchIdByHash","inputs":[{"name":"","type":"bytes32","internalType":"bytes32"}],"outputs":[{"name":"","type":"uint256","internalType":"uint256"}],"stateMutability":"view"},{"type":"function","name":"batches","inputs":[{"name":"","type":"uint256","internalType":"uint256"}],"outputs":[{"name":"tokenId","type":"uint256","internalType":"uint256"},{"name":"batchHash","type":"bytes32","internalType":"bytes32"},{"name":"canonicalCID","type":"string","internalType":"string"},{"name":"issuedAt","type":"uint64","internalType":"uint64"},{"name":"periodStart","type":"uint64","internalType":"uint64"},{"name":"periodEnd","type":"uint64","internalType":"uint64"},{"name":"totalIssuedUnits","type":"uint256","internalType":"uint256"},{"name":"totalRetiredUnits","type":"uint256","internalType":"uint256"},{"name":"issuer","type":"address","internalType":"address"},{"name":"custodyWallet","type":"address","internalType":"address"},{"name":"status","type":"uint8","internalType":"enum HEC1155Registry.BatchStatus"},{"name":"statusChangedAt","type":"uint64","internalType":"uint64"},{"name":"methodologyVersion","type":"string","internalType":"string"},{"name":"schemaVersion","type":"string","internalType":"string"},{"name":"statusReason","type":"string","internalType":"string"}],"stateMutability":"view"},{"type":"function","name":"circulatingSupply","inputs":[{"name":"batchTokenId","type":"uint256","internalType":"uint256"}],"outputs":[{"name":"","type":"uint256","internalType":"uint256"}],"stateMutability":"view"},{"type":"function","name":"getRoleAdmin","inputs":[{"name":"role","type":"bytes32","internalType":"bytes32"}],"outputs":[{"name":"","type":"bytes32","internalType":"bytes32"}],"stateMutability":"view"},{"type":"function","name":"grantRole","inputs":[{"name":"role","type":"bytes32","internalType":"bytes32"},{"name":"account","type":"address","internalType":"address"}],"outputs":[],"stateMutability":"nonpayable"},{"type":"function","name":"hasRole","inputs":[{"name":"role","type":"bytes32","internalType":"bytes32"},{"name":"account","type":"address","internalType":"address"}],"outputs":[{"name":"","type":"bool","internalType":"bool"}],"stateMutability":"view"},{"type":"function","name":"isApprovedForAll","inputs":[{"name":"account","type":"address","internalType":"address"},{"name":"operator","type":"address","internalType":"address"}],"outputs":[{"name":"","type":"bool","internalType":"bool"}],"stateMutability":"view"},{"type":"function","name":"issueBatch","inputs":[{"name":"batchHash","type":"bytes32","internalType":"bytes32"},{"name":"canonicalCID","type":"string","internalType":"string"},{"name":"periodStart","type":"uint64","internalType":"uint64"},{"name":"periodEnd","type":"uint64","internalType":"uint64"},{"name":"totalIssuedUnits","type":"uint256","internalType":"uint256"},{"name":"methodologyVersion","type":"string","internalType":"string"},{"name":"schemaVersion","type":"string","internalType":"string"}],"outputs":[{"name":"tokenId","type":"uint256","internalType":"uint256"}],"stateMutability":"nonpayable"},{"type":"function","name":"nextRetirementId","inputs":[],"outputs":[{"name":"","type":"uint256","internalType":"uint256"}],"stateMutability":"view"},{"type":"function","name":"pause","inputs":[],"outputs":[],"stateMutability":"nonpayable"},{"type":"function","name":"paused","inputs":[],"outputs":[{"name":"","type":"bool","internalType":"bool"}],"stateMutability":"view"},{"type":"function","name":"receiptContract","inputs":[],"outputs":[{"name":"","type":"address","internalType":"contract IHECRetirementReceipt"}],"stateMutability":"view"},{"type":"function","name":"renounceRole","inputs":[{"name":"role","type":"bytes32","internalType":"bytes32"},{"name":"callerConfirmation","type":"address","internalType":"address"}],"outputs":[],"stateMutability":"nonpayable"},{"type":"function","name":"retire","inputs":[{"name":"batchTokenId","type":"uint256","internalType":"uint256"},{"name":"amountUnits","type":"uint256","internalType":"uint256"},{"name":"claimantWallet","type":"address","internalType":"address"},{"name":"retirementReference","type":"string","internalType":"string"},{"name":"beneficiaryRefHash","type":"string","internalType":"string"},{"name":"purpose","type":"string","internalType":"string"}],"outputs":[{"name":"retirementId","type":"uint256","internalType":"uint256"}],"stateMutability":"nonpayable"},{"type":"function","name":"retirements","inputs":[{"name":"","type":"uint256","internalType":"uint256"}],"outputs":[{"name":"retirementId","type":"uint256","internalType":"uint256"},{"name":"batchTokenId","type":"uint256","internalType":"uint256"},{"name":"protocolOperator","type":"address","internalType":"address"},{"name":"claimantWallet","type":"address","internalType":"address"},{"name":"amountUnits","type":"uint256","internalType":"uint256"},{"name":"retiredAt","type":"uint64","internalType":"uint64"},{"name":"retirementReference","type":"string","internalType":"string"},{"name":"beneficiaryRefHash","type":"string","internalType":"string"},{"name":"purpose","type":"string","internalType":"string"},{"name":"receiptTokenId","type":"uint256","internalType":"uint256"}],"stateMutability":"view"},{"type":"function","name":"revokeRole","inputs":[{"name":"role","type":"bytes32","internalType":"bytes32"},{"name":"account","type":"address","internalType":"address"}],"outputs":[],"stateMutability":"nonpayable"},{"type":"function","name":"safeBatchTransferFrom","inputs":[{"name":"from","type":"address","internalType":"address"},{"name":"to","type":"address","internalType":"address"},{"name":"ids","type":"uint256[]","internalType":"uint256[]"},{"name":"values","type":"uint256[]","internalType":"uint256[]"},{"name":"data","type":"bytes","internalType":"bytes"}],"outputs":[],"stateMutability":"nonpayable"},{"type":"function","name":"safeTransferFrom","inputs":[{"name":"from","type":"address","internalType":"address"},{"name":"to","type":"address","internalType":"address"},{"name":"id","type":"uint256","internalType":"uint256"},{"name":"value","type":"uint256","internalType":"uint256"},{"name":"data","type":"bytes","internalType":"bytes"}],"outputs":[],"stateMutability":"nonpayable"},{"type":"function","name":"setApprovalForAll","inputs":[{"name":"operator","type":"address","internalType":"address"},{"name":"approved","type":"bool","internalType":"bool"}],"outputs":[],"stateMutability":"nonpayable"},{"type":"function","name":"setBatchStatus","inputs":[{"name":"batchTokenId","type":"uint256","internalType":"uint256"},{"name":"newStatus","type":"uint8","internalType":"enum HEC1155Registry.BatchStatus"},{"name":"reason","type":"string","internalType":"string"}],"outputs":[],"stateMutability":"nonpayable"},{"type":"function","name":"setReceiptContract","inputs":[{"name":"contractAddress","type":"address","internalType":"address"}],"outputs":[],"stateMutability":"nonpayable"},{"type":"function","name":"setTreasury","inputs":[{"name":"newTreasury","type":"address","internalType":"address"}],"outputs":[],"stateMutability":"nonpayable"},{"type":"function","name":"supportsInterface","inputs":[{"name":"interfaceId","type":"bytes4","internalType":"bytes4"}],"outputs":[{"name":"","type":"bool","internalType":"bool"}],"stateMutability":"view"},{"type":"function","name":"treasuryAddress","inputs":[],"outputs":[{"name":"","type":"address","internalType":"address"}],"stateMutability":"view"},{"type":"function","name":"unpause","inputs":[],"outputs":[],"stateMutability":"nonpayable"},{"type":"function","name":"uri","inputs":[{"name":"","type":"uint256","internalType":"uint256"}],"outputs":[{"name":"","type":"string","internalType":"string"}],"stateMutability":"view"},{"type":"event","name":"ApprovalForAll","inputs":[{"name":"account","type":"address","indexed":true,"internalType":"address"},{"name":"operator","type":"address","indexed":true,"internalType":"address"},{"name":"approved","type":"bool","indexed":false,"internalType":"bool"}],"anonymous":false},{"type":"event","name":"BatchIssued","inputs":[{"name":"tokenId","type":"uint256","indexed":true,"internalType":"uint256"},{"name":"batchHash","type":"bytes32","indexed":true,"internalType":"bytes32"},{"name":"treasury","type":"address","indexed":true,"internalType":"address"},{"name":"totalIssuedUnits","type":"uint256","indexed":false,"internalType":"uint256"},{"name":"canonicalCID","type":"string","indexed":false,"internalType":"string"},{"name":"methodologyVersion","type":"string","indexed":false,"internalType":"string"},{"name":"schemaVersion","type":"string","indexed":false,"internalType":"string"}],"anonymous":false},{"type":"event","name":"BatchStatusChanged","inputs":[{"name":"tokenId","type":"uint256","indexed":true,"internalType":"uint256"},{"name":"previousStatus","type":"uint8","indexed":false,"internalType":"enum HEC1155Registry.BatchStatus"},{"name":"newStatus","type":"uint8","indexed":false,"internalType":"enum HEC1155Registry.BatchStatus"},{"name":"reason","type":"string","indexed":false,"internalType":"string"},{"name":"changedBy","type":"address","indexed":false,"internalType":"address"}],"anonymous":false},{"type":"event","name":"Paused","inputs":[{"name":"account","type":"address","indexed":false,"internalType":"address"}],"anonymous":false},{"type":"event","name":"Retired","inputs":[{"name":"retirementId","type":"uint256","indexed":true,"internalType":"uint256"},{"name":"batchTokenId","type":"uint256","indexed":true,"internalType":"uint256"},{"name":"claimantWallet","type":"address","indexed":true,"internalType":"address"},{"name":"amountUnits","type":"uint256","indexed":false,"internalType":"uint256"},{"name":"retirementReference","type":"string","indexed":false,"internalType":"string"},{"name":"receiptTokenId","type":"uint256","indexed":false,"internalType":"uint256"}],"anonymous":false},{"type":"event","name":"RoleAdminChanged","inputs":[{"name":"role","type":"bytes32","indexed":true,"internalType":"bytes32"},{"name":"previousAdminRole","type":"bytes32","indexed":true,"internalType":"bytes32"},{"name":"newAdminRole","type":"bytes32","indexed":true,"internalType":"bytes32"}],"anonymous":false},{"type":"event","name":"RoleGranted","inputs":[{"name":"role","type":"bytes32","indexed":true,"internalType":"bytes32"},{"name":"account","type":"address","indexed":true,"internalType":"address"},{"name":"sender","type":"address","indexed":true,"internalType":"address"}],"anonymous":false},{"type":"event","name":"RoleRevoked","inputs":[{"name":"role","type":"bytes32","indexed":true,"internalType":"bytes32"},{"name":"account","type":"address","indexed":true,"internalType":"address"},{"name":"sender","type":"address","indexed":true,"internalType":"address"}],"anonymous":false},{"type":"event","name":"TransferBatch","inputs":[{"name":"operator","type":"address","indexed":true,"internalType":"address"},{"name":"from","type":"address","indexed":true,"internalType":"address"},{"name":"to","type":"address","indexed":true,"internalType":"address"},{"name":"ids","type":"uint256[]","indexed":false,"internalType":"uint256[]"},{"name":"values","type":"uint256[]","indexed":false,"internalType":"uint256[]"}],"anonymous":false},{"type":"event","name":"TransferSingle","inputs":[{"name":"operator","type":"address","indexed":true,"internalType":"address"},{"name":"from","type":"address","indexed":true,"internalType":"address"},{"name":"to","type":"address","indexed":true,"internalType":"address"},{"name":"id","type":"uint256","indexed":false,"internalType":"uint256"},{"name":"value","type":"uint256","indexed":false,"internalType":"uint256"}],"anonymous":false},{"type":"event","name":"URI","inputs":[{"name":"value","type":"string","indexed":false,"internalType":"string"},{"name":"id","type":"uint256","indexed":true,"internalType":"uint256"}],"anonymous":false},{"type":"event","name":"Unpaused","inputs":[{"name":"account","type":"address","indexed":false,"internalType":"address"}],"anonymous":false},{"type":"error","name":"AccessControlBadConfirmation","inputs":[]},{"type":"error","name":"AccessControlUnauthorizedAccount","inputs":[{"name":"account","type":"address","internalType":"address"},{"name":"neededRole","type":"bytes32","internalType":"bytes32"}]},{"type":"error","name":"BatchAlreadyRegistered","inputs":[{"name":"batchHash","type":"bytes32","internalType":"bytes32"}]},{"type":"error","name":"BatchNotActive","inputs":[]},{"type":"error","name":"BatchNotFound","inputs":[]},{"type":"error","name":"ERC1155InsufficientBalance","inputs":[{"name":"sender","type":"address","internalType":"address"},{"name":"balance","type":"uint256","internalType":"uint256"},{"name":"needed","type":"uint256","internalType":"uint256"},{"name":"tokenId","type":"uint256","internalType":"uint256"}]},{"type":"error","name":"ERC1155InvalidApprover","inputs":[{"name":"approver","type":"address","internalType":"address"}]},{"type":"error","name":"ERC1155InvalidArrayLength","inputs":[{"name":"idsLength","type":"uint256","internalType":"uint256"},{"name":"valuesLength","type":"uint256","internalType":"uint256"}]},{"type":"error","name":"ERC1155InvalidOperator","inputs":[{"name":"operator","type":"address","internalType":"address"}]},{"type":"error","name":"ERC1155InvalidReceiver","inputs":[{"name":"receiver","type":"address","internalType":"address"}]},{"type":"error","name":"ERC1155InvalidSender","inputs":[{"name":"sender","type":"address","internalType":"address"}]},{"type":"error","name":"ERC1155MissingApprovalForAll","inputs":[{"name":"operator","type":"address","internalType":"address"},{"name":"owner","type":"address","internalType":"address"}]},{"type":"error","name":"EmptyString","inputs":[]},{"type":"error","name":"EnforcedPause","inputs":[]},{"type":"error","name":"ExpectedPause","inputs":[]},{"type":"error","name":"InvalidAmount","inputs":[]},{"type":"error","name":"InvalidPeriod","inputs":[]},{"type":"error","name":"NonTransferableInventory","inputs":[]},{"type":"error","name":"ZeroAddress","inputs":[]},{"type":"error","name":"ZeroHash","inputs":[]}],"bytecode":{"object":"0x608060405234620002c45762003149803803806200001d81620002c9565b928339810190606081830312620002c4576200003981620002ef565b90602062000049818301620002ef565b604083015190926001600160401b039190828211620002c4570191601f90868285011215620002c45783518381116200029957601f19946200009182850187168401620002c9565b98828a52838383010111620002c457829060005b838110620002af5750506000918901015286519283116200029957600254936001948581811c911680156200028e575b8382101462000278578381116200022c575b5081928411600114620001c15750508192939495600092620001b5575b5050600019600383901b1c191690821b176002555b60058190556009556001600160a01b0391808316158015620001aa575b6200019857806200014b620001769262000304565b50620001578162000385565b50620001638162000428565b506200016f81620004c6565b5062000564565b501660018060a01b0319600b541617600b55604051612b269081620006038239f35b60405163d92e233d60e01b8152600490fd5b508282161562000136565b01519050388062000104565b839291921696600260005282600020926000905b89821062000214575050838596979810620001fa575b505050811b0160025562000119565b015160001960f88460031b161c19169055388080620001eb565b808785968294968601518155019501930190620001d5565b6002600052826000208480870160051c8201928588106200026e575b0160051c019086905b82811062000261575050620000e7565b6000815501869062000251565b9250819262000248565b634e487b7160e01b600052602260045260246000fd5b90607f1690620000d5565b634e487b7160e01b600052604160045260246000fd5b8181018301518b8201840152849201620000a5565b600080fd5b6040519190601f01601f191682016001600160401b038111838210176200029957604052565b51906001600160a01b0382168203620002c457565b6001600160a01b031660008181527f3617319a054d772f909f7c479a2cebe5066e836a939412e32403c99029b92eff602052604081205490919060ff16620003815781805260036020526040822081835260205260408220600160ff198254161790553391600080516020620031298339815191528180a4600190565b5090565b6001600160a01b031660008181527f2c1828b2647445c9ea81ca509e34945fbad86b98324433c4f5260b9490e9e80060205260408120549091907fedcc084d3dcd65a1f7f23c65c46722faca6953d28e43150a467cf43e5c3092389060ff16620004235780835260036020526040832082845260205260408320600160ff1982541617905560008051602062003129833981519152339380a4600190565b505090565b6001600160a01b031660008181527f30adeb818ef77f204f5a603c30fa5332397b6e28fb3b7f9d937ae6a6914716de60205260408120549091907f65d7a28e3265b37a6474929f336521b332c1681b933f6cb9f3376673440d862a9060ff16620004235780835260036020526040832082845260205260408320600160ff1982541617905560008051602062003129833981519152339380a4600190565b6001600160a01b031660008181527f1d117799f8c38ac4d1758b8b40b33f7a107dca8320fa1f360c693be808b0ce8060205260408120549091907faecd6124097a9eb0b4f41f484962446a098f1e215d44c9b40ad6eec8240567139060ff16620004235780835260036020526040832082845260205260408320600160ff1982541617905560008051602062003129833981519152339380a4600190565b6001600160a01b031660008181527f7b662ff161988746b52b985fe3b7774553178693f5ae2158d91c42690253030360205260408120549091907ff70ccd5004a2a6f964f044c0095454c529799f8602238d52b5a197af351dd4199060ff16620004235780835260036020526040832082845260205260408320600160ff1982541617905560008051602062003129833981519152339380a460019056fe6080604052600436101561001257600080fd5b60003560e01c8062fdd58e1461023657806301ffc9a7146102315780630e89341c1461022c57806319bcef6d14610227578063248a9ca3146102225780632eb2c2d61461021d5780632f2ff15d1461021857806336568abe146102135780633f4ba83a1461020e5780634045a0921461020957806341717c01146102045780634e1273f4146101ff5780635c975abb146101fa57806361e4678b146101f557806383f2fc3e146101f05780638456cb59146101eb57806391d14854146101e657806392ff6aea146101e1578063a217fddf146101dc578063a22cb465146101d7578063b158e39a146101d2578063b32c4d8d146101cd578063c5f956af146101c8578063c8a09e73146101c3578063d435b3a3146101be578063d547741f146101b9578063e63ab1e9146101b4578063e985e9c5146101af578063ef84ca84146101aa578063f0f44260146101a5578063f242432a146101a0578063f68e95531461019b578063f9a1e396146101965763fa46eda41461019157600080fd5b611569565b61152e565b6114f3565b6113d6565b611389565b61136b565b61131a565b6112df565b6112a0565b611277565b6111f7565b6111ce565b6110f8565b610fdc565b610f20565b610f04565b610eb9565b610e67565b610e0d565b610dd2565b610d36565b610bac565b610af3565b61096d565b6108d0565b61080d565b6107c6565b610787565b61065f565b610502565b6104a3565b6103bd565b6102f5565b610296565b600435906001600160a01b038216820361025157565b600080fd5b602435906001600160a01b038216820361025157565b604435906001600160a01b038216820361025157565b35906001600160a01b038216820361025157565b346102515760403660031901126102515760206102da6102b461023b565b6024356000526000835260406000209060018060a01b0316600052602052604060002090565b54604051908152f35b6001600160e01b031981160361025157565b34610251576020366003190112610251576020600435610314816102e3565b63ffffffff60e01b16637965db0b60e01b811490811561033a575b506040519015158152f35b636cdb3d1360e11b81149150811561036c575b811561035b575b503861032f565b6301ffc9a760e01b14905038610354565b6303a24d0760e21b8114915061034d565b919082519283825260005b8481106103a9575050826000602080949584010152601f8019910116010190565b602081830181015184830182015201610388565b34610251576020806003193601126102515760405190600082600254916103e383610bcf565b92838352600190858282169182600014610483575050600114610426575b5061040e92500383610567565b61042260405192828493845283019061037d565b0390f35b84915060026000527f405787fa12a823e0f2b7631cc41b3ba8828b3321ca811111fa75cd3aa3bb5ace906000915b85831061046b57505061040e935082010138610401565b80548389018501528794508693909201918101610454565b60ff19168582015261040e95151560051b85010192503891506104019050565b34610251576020366003190112610251576104bc61023b565b6104c4611595565b6001600160a01b031680156104f0576bffffffffffffffffffffffff60a01b600a541617600a55600080f35b60405163d92e233d60e01b8152600490fd5b346102515760203660031901126102515760043560005260036020526020600160406000200154604051908152f35b634e487b7160e01b600052604160045260246000fd5b602081019081106001600160401b0382111761056257604052565b610531565b90601f801991011681019081106001600160401b0382111761056257604052565b6001600160401b0381116105625760051b60200190565b81601f82011215610251578035916105b683610588565b926105c46040519485610567565b808452602092838086019260051b820101928311610251578301905b8282106105ee575050505090565b813581529083019083016105e0565b6001600160401b03811161056257601f01601f191660200190565b81601f820112156102515780359061062f826105fd565b9261063d6040519485610567565b8284526020838301011161025157816000926020809301838601378301015290565b346102515760a03660031901126102515761067861023b565b610680610256565b90604435916001600160401b0390818411610251576106a46004943690860161059f565b90606435838111610251576106bc903690870161059f565b92608435908111610251576106d49036908701610618565b936001600160a01b03808216903382141580610763575b6107365783161561071e57156107075761070595506119d2565b005b604051626a0d4560e21b8152600081880152602490fd5b604051632bfa23e760e11b8152600081890152602490fd5b6040805163711bec9160e11b815233818b019081526001600160a01b038616602082015290918291010390fd5b50600082815260016020908152604080832033845290915290205460ff16156106eb565b34610251576040366003190112610251576107056004356107a6610256565b908060005260036020526107c1600160406000200154611771565b611792565b34610251576040366003190112610251576107df610256565b336001600160a01b038216036107fb576107059060043561182c565b60405163334bd91960e11b8152600490fd5b34610251576000366003190112610251576108266115ed565b60045460ff8116156108655760ff19166004557f5db9ee0a495bf2e6ff9c91a7834c1ba4fdd244a5e8aa4e537bd38aeae4b073aa6020604051338152a1005b604051638dfc202b60e01b8152600490fd5b9181601f84011215610251578235916001600160401b038311610251576020838186019501011161025157565b604435906001600160401b038216820361025157565b606435906001600160401b038216820361025157565b346102515760e0366003190112610251576001600160401b0360243581811161025157610901903690600401610877565b61090c9291926108a4565b906109156108ba565b9360a4358481116102515761092e903690600401610877565b9160c435958611610251576104229661094e61095d973690600401610877565b96909560843593600435611f8a565b6040519081529081906020820190565b34610251576060366003190112610251576004356024356004811015610251576001600160401b03604435818111610251576109ad903690600401610877565b9290916109b8611669565b6109c0612455565b6109d4856000526007602052604060002090565b90815415610a99578415610a875784610a747faabcf273c269e8bbb83e58c544d0eae95e8de912fea4cc821bcf977b210b2a869686600a610a8296610a1889610ff9565b610a238915156128b7565b610a6e60078201610a39815460ff9060a01c1690565b98610a448c83612274565b815467ffffffffffffffff60a81b1916429190911660a81b67ffffffffffffffff60a81b16179055565b016121ad565b6040519485943393866128f4565b0390a2005b60405163ecd7b0d160e01b8152600490fd5b604051632785786f60e21b8152600490fd5b90815180825260208080930193019160005b828110610acb575050505090565b835185529381019392810192600101610abd565b906020610af0928181520190610aab565b90565b34610251576040366003190112610251576004356001600160401b038082116102515736602383011215610251578160040135610b2f81610588565b92610b3d6040519485610567565b81845260209160248386019160051b8301019136831161025157602401905b828210610b9557856024358681116102515761042291610b83610b8992369060040161059f565b9061190d565b60405191829182610adf565b838091610ba184610282565b815201910190610b5c565b3461025157600036600319011261025157602060ff600454166040519015158152f35b90600182811c92168015610bff575b6020831014610be957565b634e487b7160e01b600052602260045260246000fd5b91607f1691610bde565b9060009291805491610c1a83610bcf565b918282526001938481169081600014610c7c5750600114610c3c575b50505050565b90919394506000526020928360002092846000945b838610610c68575050505001019038808080610c36565b805485870183015294019385908201610c51565b9294505050602093945060ff191683830152151560051b01019038808080610c36565b90610cba610cb39260405193848092610c09565b0383610567565b565b9a999895610d22958c6060610d14966101209c98610d319c976001600160401b03978552602085015260018060a01b0380921660408501521691015260808d01521660a08b01526101408060c08c01528a019061037d565b9088820360e08a015261037d565b9086820361010088015261037d565b930152565b346102515760203660031901126102515760043560005260086020526040600020805461042260018301549260018060a01b0390816002820154169160038201541660048201546001600160401b0360058401541660405191610da783610da08160068901610c09565b0384610567565b610db360078601610c9f565b936009610dc260088801610c9f565b960154966040519a8b9a8b610cbc565b346102515760003660031901126102515760206040517ff70ccd5004a2a6f964f044c0095454c529799f8602238d52b5a197af351dd4198152f35b3461025157600036600319011261025157610e266115ed565b610e2e612455565b600160ff1960045416176004557f62e78cea01bee320cd4e420270b5ea74000d11b0c9f74754ebdbfc544b05a2586020604051338152a1005b3461025157604036600319011261025157602060ff610ead610e87610256565b6004356000526003845260406000209060018060a01b0316600052602052604060002090565b54166040519015158152f35b346102515760203660031901126102515760043560005260076020526040600020805415610a9957600560048201549101548103908111610eff57602090604051908152f35b6118be565b3461025157600036600319011261025157602060405160008152f35b3461025157604036600319011261025157610f3961023b565b6024359081151590818303610251576001600160a01b038116928315610fc457610f85610f969233600052600160205260406000209060018060a01b0316600052602052604060002090565b9060ff801983541691151516179055565b6040519081527f17307eab39ab6107e8899845ad3d59bd9653f200f220920489ca2b5937696c3160203392a3005b60405162ced3e160e81b815260006004820152602490fd5b346102515760003660031901126102515760206040516103e88152f35b6004111561100357565b634e487b7160e01b600052602160045260246000fd5b9060048210156110035752565b809e9d9c9a9896949b9997959392918152602001528c6101e06040819201528d016110509161037d565b6001600160401b0390991660608d01526001600160401b031660808c01526001600160401b031660a08b015260c08a015260e08901526001600160a01b03166101008801526001600160a01b031661012087015261014086016110b291611019565b6001600160401b03166101608501528381036101808501526110d39161037d565b8281036101a08401526110e59161037d565b90808203906101c00152610af09161037d565b346102515760203660031901126102515760043560005260076020526040600020805461042260018301546040519361113f856111388160028501610c09565b0386610567565b600381015493600482015492600583015491611164600685015460018060a01b031690565b9060078501549161117760088701610c9f565b94611190600a61118960098a01610c9f565b9801610c9f565b976040519b8c9b8c6001600160401b0392838960a81c169960ff8a60a01c169960018060a01b031698858560801c1695808660401c16951693611026565b3461025157600036600319011261025157600b546040516001600160a01b039091168152602090f35b346102515760c03660031901126102515761121061026c565b6001600160401b0360643581811161025157611230903690600401610877565b9260843583811161025157611249903690600401610877565b9060a435948511610251576104229561126961095d963690600401610877565b959094602435600435612461565b3461025157600036600319011261025157600a546040516001600160a01b039091168152602090f35b34610251576040366003190112610251576107056004356112bf610256565b908060005260036020526112da600160406000200154611771565b61182c565b346102515760003660031901126102515760206040517f65d7a28e3265b37a6474929f336521b332c1681b933f6cb9f3376673440d862a8152f35b3461025157604036600319011261025157602060ff610ead61133a61023b565b611342610256565b6001600160a01b0391821660009081526001865260408082209290931681526020919091522090565b34610251576000366003190112610251576020600954604051908152f35b34610251576020366003190112610251576113a261023b565b6113aa611595565b6001600160a01b031680156104f0576bffffffffffffffffffffffff60a01b600b541617600b55600080f35b346102515760a0366003190112610251576113ef61023b565b6113f7610256565b6084356001600160401b03811161025157611416903690600401610618565b906001600160a01b038381169033821415806114cf575b6114a85782161561148f5715611477576107059261146f6064356044359160405192600184526020840152604083019160018352606084015260808301604052565b9290916119d2565b604051626a0d4560e21b815260006004820152602490fd5b604051632bfa23e760e11b815260006004820152602490fd5b60405163711bec9160e11b81523360048201526001600160a01b0386166024820152604490fd5b50600082815260016020908152604080832033845290915290205460ff161561142d565b346102515760003660031901126102515760206040517fedcc084d3dcd65a1f7f23c65c46722faca6953d28e43150a467cf43e5c3092388152f35b346102515760003660031901126102515760206040517faecd6124097a9eb0b4f41f484962446a098f1e215d44c9b40ad6eec8240567138152f35b346102515760203660031901126102515760043560005260066020526020604060002054604051908152f35b3360009081527f3617319a054d772f909f7c479a2cebe5066e836a939412e32403c99029b92eff602052604090205460ff16156115ce57565b60405163e2517d3f60e01b815233600482015260006024820152604490fd5b3360009081527f30adeb818ef77f204f5a603c30fa5332397b6e28fb3b7f9d937ae6a6914716de602052604090207f65d7a28e3265b37a6474929f336521b332c1681b933f6cb9f3376673440d862a9060ff905b54161561164b5750565b6044906040519063e2517d3f60e01b82523360048301526024820152fd5b3360009081527f1d117799f8c38ac4d1758b8b40b33f7a107dca8320fa1f360c693be808b0ce80602052604090207faecd6124097a9eb0b4f41f484962446a098f1e215d44c9b40ad6eec8240567139060ff90611641565b3360009081527f2c1828b2647445c9ea81ca509e34945fbad86b98324433c4f5260b9490e9e800602052604090207fedcc084d3dcd65a1f7f23c65c46722faca6953d28e43150a467cf43e5c3092389060ff90611641565b3360009081527f7b662ff161988746b52b985fe3b7774553178693f5ae2158d91c426902530303602052604090207ff70ccd5004a2a6f964f044c0095454c529799f8602238d52b5a197af351dd4199060ff90611641565b6000818152600360209081526040808320338452909152902060ff90611641565b600090808252600360205260ff6117be84604085209060018060a01b0316600052602052604060002090565b5416611826578082526003602090815260408084206001600160a01b038616600090815292529020805460ff1916600117905533926001600160a01b0316917f2f8788117e7eff1d82e926ec794901d17c78024a50270940304540a733656f0d9080a4600190565b50905090565b600090808252600360205260ff61185884604085209060018060a01b0316600052602052604060002090565b541615611826578082526003602090815260408084206001600160a01b038616600090815292529020805460ff1916905533926001600160a01b0316917ff6391f5c32d9c69d2a47ea670b442974b53935d1edc7fd64eb21e047a839171b9080a4600190565b634e487b7160e01b600052601160045260246000fd5b6000198114610eff5760010190565b80518210156118f75760209160051b010190565b634e487b7160e01b600052603260045260246000fd5b919091805183518082036119b057505080519061192982610588565b916119376040519384610567565b808352611946601f1991610588565b0190602091368385013760005b81518110156119a857600581901b8281018401519087018401516000908152602081815260408083206001600160a01b03909416835292905220546119a3919061199d82876118e3565b526118d4565b611953565b509193505050565b604051635b05999160e01b815260048101919091526024810191909152604490fd5b9493929091600460ff815416611c36576001600160a01b0387811696871515969193918780611c2b575b611c1a5782518651808203611bf557505060005b8351811015611b1b578060051b9089896020808589010151948b01015191611a90575b611a4793898216611a4c575b5050506118d4565b611a10565b611a8691611a67611a7e926000526000602052604060002090565b9060018060a01b0316600052602052604060002090565b91825461265e565b9055388981611a3f565b5090918c611aac81611a67846000526000602052604060002090565b54838110611adf57918b91611ad785611a479796950391611a67846000526000602052604060002090565b559350611a33565b604080516303dee4c560e01b81526001600160a01b03909316838b01908152602081019290925281018490526060810183905281906080010390fd5b5096509794929150956001875114600014611bb657602087810151858201516040805192835292820152838516929133917fc3d58168c5ae7397731d063d5bbf3d657854427343f4c083240f7aacaa2d0f629190a45b8116611b7f575b5050505050565b8451600103611ba557602080611b9b9601519201519233611e07565b3880808080611b78565b611bb194919233611f53565b611b9b565b60405190828416917f4a39dc06d4c0dbc64b70af90fd698a233a518aa5d07e595d983b8c0526c8f7fb339180611bed898d83612acb565b0390a4611b71565b60408051635b05999160e01b8152808801938452602084019290925290918291010390fd5b6040516303f877f160e51b81528490fd5b5084871615156119fc565b60405163d93c066560e01b8152fd5b908160209103126102515751610af0816102e3565b909260a092610af09594600180861b031683526000602084015260408301526060820152816080820152019061037d565b9192610af095949160a094600180871b03809216855216602084015260408301526060820152816080820152019061037d565b6040513d6000823e3d90fd5b60405190611cd782610547565b60008252565b3d15611d08573d90611cee826105fd565b91611cfc6040519384610567565b82523d6000602084013e565b606090565b9293919093843b611d1f575050505050565b602091611d42604051948593849363f23a6e6160e01b9889865260048601611c5a565b038160006001600160a01b0388165af160009181611dd7575b50611d9a5782611d69611cdd565b8051919082611d9357604051632bfa23e760e11b81526001600160a01b0383166004820152602490fd5b6020915001fd5b6001600160e01b03191603611db457503880808080611b78565b604051632bfa23e760e11b81526001600160a01b03919091166004820152602490fd5b611df991925060203d8111611e00575b611df18183610567565b810190611c45565b9038611d5b565b503d611de7565b939290949194853b611e1c575b505050505050565b611e3f602093604051958694859463f23a6e6160e01b998a875260048701611c8b565b038160006001600160a01b0388165af160009181611e81575b50611e665782611d69611cdd565b6001600160e01b03191603611db45750388080808080611e14565b611e9a91925060203d8111611e0057611df18183610567565b9038611e58565b92611ed0610af09593611ede9360018060a01b031686526000602087015260a0604087015260a0860190610aab565b908482036060860152610aab565b91608081840391015261037d565b9390610af09593611ed091611ede9460018060a01b03809216885216602087015260a0604087015260a0860190610aab565b9293919093843b611f30575050505050565b602091611d42604051948593849363bc197c8160e01b9889865260048601611ea1565b939290949194853b611f6757505050505050565b611e3f602093604051958694859463bc197c8160e01b998a875260048701611eec565b949793959196909892611f9b6116c1565b611fa3612455565b611fb284838b8a858d8c612a3f565b600554998a98611fc18a6118d4565b60055589611fd9896000526006602052604060002090565b55611fee8a6000526007602052604060002090565b978a895560018901556002880191612005926121ad565b60038601805467ffffffffffffffff19166001600160401b034216908117825597909182546fffffffffffffffff0000000000000000191660409190911b6fffffffffffffffff000000000000000016178255815467ffffffffffffffff60801b191660809190911b67ffffffffffffffff60801b1617905560048501889055600060058601556006850180546001600160a01b03191633179055600b546001600160a01b03166007860180546001600160a01b0319166001600160a01b0390921691909117815595865460ff60a01b1916600160a01b178755865467ffffffffffffffff60a81b191660a89190911b67ffffffffffffffff60a81b1617865561211291600886016121ad565b61211f91600984016121ad565b600a0161212b90612298565b546001600160a01b03169161213e611cca565b91612148936122f3565b610af081612937565b81811061215c575050565b60008155600101612151565b9190601f811161217757505050565b610cba926000526020600020906020601f840160051c830193106121a3575b601f0160051c0190612151565b9091508190612196565b9092916001600160401b038111610562576121d2816121cc8454610bcf565b84612168565b6000601f821160011461220c5781929394600092612201575b50508160011b916000199060031b1c1916179055565b0135905038806121eb565b601f1982169461222184600052602060002090565b91805b87811061225c575083600195969710612242575b505050811b019055565b0135600019600384901b60f8161c19169055388080612238565b90926020600181928686013581550194019101612224565b90600481101561100357815460ff60a01b191660a09190911b60ff60a01b16179055565b6122a28154610bcf565b601f81116122d1575b507f494e495449414c5f49535355414e4345000000000000000000000000000000209055565b6122ed9082600052601f6020600020910160051c810190612151565b386122ab565b6001600160a01b0381169392909190841561148f5761232f60405192600184526020840152604083019160018352606084015260808301604052565b9260ff600454166124435781518451908181036119b057505060005b8251811015612390578061238b9160051b612384611a7e87611a67602080868b010151958c010151946000526000602052604060002090565b90556118d4565b61234b565b5092919360018251146000146124075760208281015184820151604080519283529282015260009133917fc3d58168c5ae7397731d063d5bbf3d657854427343f4c083240f7aacaa2d0f629190a45b80516001036123fd5790602080610cba959301519101519133611d0d565b610cba9333611f1e565b60006040517f4a39dc06d4c0dbc64b70af90fd698a233a518aa5d07e595d983b8c0526c8f7fb33918061243b888883612acb565b0390a46123df565b60405163d93c066560e01b8152600490fd5b60ff6004541661244357565b959197939694929096612472611719565b61247a612455565b61248e876000526007602052604060002090565b97885415610a99576007890154600160ff8260a01c166124ad81610ff9565b0361264c57811561263a576001600160a01b03998b8b16156104f0576124d8838b8d600595166126ef565b016124e482825461265e565b9055600a54600099908b906001600160a01b03169182166125bd575b50506009549961250f8b6118d4565b6009556125268b6000526008602052604060002090565b8b815560018101999099556002890180546001600160a01b031916331790556003890180546001600160a01b0319166001600160a01b03909216919091179055600488015560058701805467ffffffffffffffff19166001600160401b03421617905561259691600688016121ad565b6125a391600786016121ad565b6125b091600884016121ad565b60090155610af0816129c7565b8285928b8d602094969e966125ed8d8f8d8f8d6040519c8d9b8c9a8b996313c49dbb60e11b8b5260048b0161269b565b03925af19182156126355791612607575b5097388a612500565b612628915060203d811161262e575b6126208183610567565b81019061266b565b386125fe565b503d612616565b611cbe565b60405163162908e360e11b8152600490fd5b604051635ae7a89560e11b8152600490fd5b91908201809211610eff57565b90816020910312610251575190565b908060209392818452848401376000828201840152601f01601f1916010190565b9795939094610af09997936126d3936126e19760018060a01b03168b5260208b015260408a015260c060608a015260c089019161267a565b91868303608088015261267a565b9260a081850391015261267a565b926001600160a01b0384169290919083156114775761272b60405192600184526020840152604083019160018352606084015260808301604052565b91906040906000825161273d81610547565b5260049260ff8454166128a8578151855180820361288457505060005b82518110156127fd578060051b886020808387010151928901015161278d82611a67856000526000602052604060002090565b548181106127c05791611a676127b5926127bb96959403936000526000602052604060002090565b556118d4565b61275a565b87516303dee4c560e01b81526001600160a01b03909316838a01908152602081019190915260408101919091526060810183905281906080010390fd5b509550600094939250600181511485146128525760209081015192810151915192835282015233907fc3d58168c5ae7397731d063d5bbf3d657854427343f4c083240f7aacaa2d0f629080604081015b0390a4565b905133927f4a39dc06d4c0dbc64b70af90fd698a233a518aa5d07e595d983b8c0526c8f7fb92829161284d9183612acb565b8451635b05999160e01b815280870192835260208301919091529081906040010390fd5b50505163d93c066560e01b8152fd5b156128be57565b60405162461bcd60e51b815260206004820152600e60248201526d696e76616c69642073746174757360901b6044820152606490fd5b936129166129279361290c87606097959a999a611019565b6020870190611019565b60806040860152608085019161267a565b6001600160a01b03909416910152565b8060005260076020526040600020906001820154907f21fae2094f7e1710f327792b3b3fb9624c28720dff4bbe390ae64227ce5bd55e60018060a01b0360078501541693600481015461284d60405192839283526080602084015260096129b86129a76080860160028501610c09565b858103604087015260088401610c09565b91848303606086015201610c09565b8060005260086020526040600020906001820154907f31ebb18d95f420764c789d2325f86cded197e5be3fde4a1e0bec0c7bbcbe986860018060a01b036003850154169360048101546009820154612a346040519384938452606060208501526006606085019101610c09565b9060408301520390a4565b9591939294908615612ab95715610a875715610a875715610a87571561263a576001600160401b03809116911610612aa757612a85816000526006602052604060002090565b54612a8d5750565b6040516318d97a7360e31b81526004810191909152602490fd5b6040516302e8f35960e31b8152600490fd5b60405163f1ae58d560e01b8152600490fd5b9091612ae2610af093604084526040840190610aab565b916020818403910152610aab56fea2646970667358221220b81562836e1b1848159a4d061c841cbfecf14c4524e058e6e5aed64636374ba164736f6c634300081400332f8788117e7eff1d82e926ec794901d17c78024a50270940304540a733656f0d","linkReferences":{}},"methodIdentifiers":{"DEFAULT_ADMIN_ROLE()":"a217fddf","PAUSER_ROLE()":"e63ab1e9","REGISTRAR_ROLE()":"f68e9553","RETIREMENT_ROLE()":"83f2fc3e","STATUS_MANAGER_ROLE()":"f9a1e396","UNIT_SCALE()":"b158e39a","balanceOf(address,uint256)":"00fdd58e","balanceOfBatch(address[],uint256[])":"4e1273f4","batchIdByHash(bytes32)":"fa46eda4","batches(uint256)":"b32c4d8d","circulatingSupply(uint256)":"92ff6aea","getRoleAdmin(bytes32)":"248a9ca3","grantRole(bytes32,address)":"2f2ff15d","hasRole(bytes32,address)":"91d14854","isApprovedForAll(address,address)":"e985e9c5","issueBatch(bytes32,string,uint64,uint64,uint256,string,string)":"4045a092","nextRetirementId()":"ef84ca84","pause()":"8456cb59","paused()":"5c975abb","receiptContract()":"d435b3a3","renounceRole(bytes32,address)":"36568abe","retire(uint256,uint256,address,string,string,string)":"c8a09e73","retirements(uint256)":"61e4678b","revokeRole(bytes32,address)":"d547741f","safeBatchTransferFrom(address,address,uint256[],uint256[],bytes)":"2eb2c2d6","safeTransferFrom(address,address,uint256,uint256,bytes)":"f242432a","setApprovalForAll(address,bool)":"a22cb465","setBatchStatus(uint256,uint8,string)":"41717c01","setReceiptContract(address)":"19bcef6d","setTreasury(address)":"f0f44260","supportsInterface(bytes4)":"01ffc9a7","treasuryAddress()":"c5f956af","unpause()":"3f4ba83a","uri(uint256)":"0e89341c"},"id":48}